:020000040800F2
:1000000020110024AD020008C1960008718100088B
:10001000B996000809060008A1B500080000000014
:10002000000000000000000000000000619B0008CC
:10003000110600080000000039970008C19B000865
:10004000CB020008CB020008CB020008CB0200085C
:10005000CB020008CB020008CB020008CB0200084C
:10006000CB020008CB020008CB020008CB0200083C
:10007000CB020008CB020008CB020008CB0200082C
:10008000CB020008CB020008CB020008CB0200081C
:10009000CB020008CB020008CB020008CB0200080C
:1000A000CB020008CB020008CB020008CB020008FC
:1000B000CB020008CB020008CB020008CB020008EC
:1000C000CB020008CB020008CB020008CB020008DC
:1000D000CB020008CB020008CB020008CB020008CC
:1000E000CB020008CB02000800000000CB02000891
:1000F000CB020008CB020008CB020008CB020008AC
:10010000CB020008CB020008CB020008CB0200089B
:10011000CB020008CB020008CB020008CB0200088B
:10012000CB020008CB020008CB020008CB0200087B
:10013000CB020008CB020008CB020008CB0200086B
:1001400000000000000000000000000000000000AF
:10015000CB020008CB020008CB020008CB0200084B
:10016000CB020008CB020008CB020008CB0200083B
:10017000CB020008CB020008CB0200080000000000
:10018000CB020008CB020008CB020008CB0200081B
:10019000CB020008CB020008CB020008CB0200080B
:1001A000CB020008CB020008CB020008CB020008FB
:1001B000CB020008CB020008CB020008CB020008EB
:1001C000CB020008CB020008CB020008CB020008DB
:1001D000CB020008CB020008CB020008CB020008CB
:1001E000CB020008CB020008CB020008CB020008BB
:1001F000CB020008CB020008CB020008CB020008AB
:10020000CB020008CB020008CB020008CB0200089A
:10021000CB020008CB020008CB020008CB0200088A
:10022000CB020008CB020008CB020008000000004F
:10023000CB020008CB02000800000000CB0200083F
:10024000CB020008CB020008CB020008CB0200085A
:10025000CB020008CB020008CB020008CB0200084A
:10026000CB020008CB020008CB020008CB0200083A
:10027000CB020008CB020008CB02000800000000FF
:10028000CB020008CB020008CB02000800000000EF
:1002900000000000CB020008DFF80CD000F090F85E
:1002A0000048004741B60008201100240748804755
:1002B0000748804707480047FEE7FEE7FEE7FEE7FE
:1002C000FEE7FEE7FEE7FEE7FEE7FEE72906000899
:1002D000B19C0008990200082DE9F05F0546002056
:1002E00092469B4688460646814640241BE02846A7
:1002F00041464746224600F053F853465A46C01A34
:10030000914110D311461846224600F03AF82D1AB2
:1003100067EB01084F4622460120002100F031F82A
:1003200017EB00094E41201EA4F10104DFDC484612
:1003300031462A464346BDE8F09F40EA01039B0749
:1003400003D009E008C9121F08C0042AFAD203E04A
:1003500011F8013B00F8013B521EF9D27047D2B2AE
:1003600001E000F8012B491EFBD270470022F6E79E
:1003700010B513460A4604461946FFF7F0FF20461B
:1003800010BD202A04DB203A00FA02F10020704759
:100390009140C2F1200320FA03F3194390407047C3
:1003A000202A04DB203A21FA02F00021704721FACA
:1003B00002F3D040C2F12002914008431946704731
:1003C0001CB509480090094801900546009C06E0CC
:1003D000E06840F0010394E8070098471034AC420D
:1003E000F6D3FFF75DFF000078B7000898B7000864
:1003F00080B584B003900398006842F20001C4F213
:100400000201884209D0FFE70398006842F2001118
:10041000C4F20201884209D1FFE742F20830C4F277
:100420000200006810F4403F09D129E046F208308C
:10043000C5F60200006810F4403F21D0FFE705F048
:1004400033FA0290039840680190B0F5803F0AD0DB
:10045000FFE70198B0F5003F05D0FFE70198B0F540
:10046000403F07D00AE00398C1880298B0FBF1F042
:10047000029004E002988008029000E0FFE75FE04D
:100480004FF40020002103F04BF9029003984068DC
:100490000090B0F5802F32D0FFE70098B0F5002F24
:1004A0002DD0FFE70098B0F5402F28D0FFE7009847
:1004B000B0F5801F23D0FFE70098B0F5A01F1ED035
:1004C000FFE70098B0F5C01F19D0FFE70098B0F51E
:1004D000E01F1FD0FFE70098B0F5001F1ED0FFE718
:1004E0000098B0F5101F1DD0FFE70098B0F5201F51
:1004F0001CD0FFE70098B0F5301F1BD01EE003981A
:1005000041686FF0010000EA51410298B0FBF1F040
:10051000029014E002980009029010E0029840094D
:1005200002900CE002988009029008E00298C0094D
:10053000029004E00298000A029000E0FFE7FFE763
:1005400002F0BEF841F20301884217D8FFE7029893
:1005500042F60151C0F23111884207D3FFE70398F8
:100560000168886840F48070886006E0039801683C
:10057000886820F480708860FFE743E002984008B4
:100580000290029845F61061C0F25F01884209D8D6
:10059000FFE703980068806820F4407003990968B9
:1005A00088602EE002984BF62041C0F2BE018842DE
:1005B0000AD8FFE7039800688068012161F30920E9
:1005C0000399096888601BE0029847F64001C0F271
:1005D0007D1188420AD8FFE70398006880680221ED
:1005E00061F3092003990968886008E003980068AE
:1005F000806840F44070039909688860FFE7FFE76E
:10060000FFE7FFE704B080BDFFE7FEE70000000062
:10061000704700000000000081B0EFF3108072B658
:100620000090FFE7FEE7000044F60C01C5F602016A
:10063000086840F002000860FFE744F60400C5F6D1
:10064000020000688004002801D4FFE7F5E7704746
:1006500084B002900298406B009002980068D0F835
:1006600084004FF6FC718843009940EA81000299AA
:100670000968C1F8840002980068D0F8840020F46A
:100680007F00029A1168926B40EA0240C1F8840030
:100690000298816B00980844009002980068D0F896
:1006A00088006FF38F00009940EA81000299096881
:1006B000C1F8880002980068D0F8880020F4FE0095
:1006C000029A1168D26B40EA0240C1F88800029891
:1006D000C16B009800EB4100009002980068D0F8D0
:1006E000A0006FF38F00009940EA81000299096829
:1006F000C1F8A00002980068D0F8A00020F4FE0025
:10070000029A1168126C40EA0240C1F8A0000299F6
:10071000086C496C009A00FB012000900298006868
:10072000D0F8B0006FF38F00009940EA8100029981
:100730000968C1F8B00002980068D0F8B00020F451
:10074000FE00029A1168926C40EA0240C1F8B000C3
:100750000299886CC96C009A00FB012000900298F5
:100760000068D0F8AC006FF38F00009940EA810078
:1007700002990968C1F8AC000299086D496D009AA8
:1007800000FB0120009002980068D0F8F0006FF3A1
:100790008F00009940EA810002990968C1F8F000D1
:1007A00002980068D0F8F00020F47C10029A1168DA
:1007B000926D40EA0240C1F8F0000298816D009805
:1007C00000EB4100009002980068D0F8C0006FF381
:1007D0008F00009940EA810002990968C1F8C000C1
:1007E00002980068D0F8C00020F47C10029A1168CA
:1007F000D26D40EA0240C1F8C00002980068D0F80B
:10080000C00020F07C50029A1168126E40EA02602B
:10081000C1F8C00002994A6B4AF60040C4F20000D9
:1008200000EB8200C86602998A6BC86E00EB8200FA
:1008300008670299CA6B086F00EBC200486702990B
:100840000A6C4B6C486F5A4300EB82008867029930
:100850008A6CCB6C886F5A4300EB8200C8670299A0
:100860000A6D4B6DC86F5A4300EB8200C1F88000DF
:1008700002998A6DD1F8800000EBC200C1F88400B3
:100880000299CA6D8B6ED1F884005A4300EB820046
:10089000C1F8880002990A6E8B6ED1F888005A431D
:1008A00000EB8200C1F890000298D0F890004DF261
:1008B000FD31C4F2000188420FD3FFE70299D1F85D
:1008C0009C0040F02000C1F89C000299032081F8B0
:1008D000980001208DF80F0017E00298C06E01907B
:1008E000FFE701980299D1F89010884208D2FFE7FB
:1008F000019900200860FFE7019804300190F0E7BB
:10090000FFE700208DF80F00FFE79DF80F0004B00F
:10091000704700000000000080B5A6B0249023912D
:1009200000208DF88B002398006808B1FFE7FFE7EF
:10093000FFE7249890F85000012804D1FFE7022037
:100940008DF897002DE12499012081F85000FFE7F0
:10095000FFE700201D901E902498006842F20001DD
:10096000C4F20201884206D1FFE742F20010C4F24D
:100970000200089002E000200890FFE7089878B98C
:10098000FFE72499486D40F020004865FFE724996F
:10099000002081F85000FFE701208DF8970000E16A
:1009A000089807F03DFC07902498006807F038FC91
:1009B000002840F0E280FFE70798002840F0DD8043
:1009C000FFE724980168012042F20002C4F202020B
:1009D000914206900CD0FFE7249800684DF6007114
:1009E000CBF6FD710844B0FA80F040090690FFE7AD
:1009F0000698C10746F20030C5F6020000291CBF68
:100A000042F20030C4F202002190239800680028CE
:100A10005ED0FFE72198806820F440402399496820
:100A200008432199886024980168012042F200025D
:100A3000C4F20202914205900CD0FFE724980068AE
:100A40004DF60071CBF6FD710844B0FA80F0400914
:100A50000590FFE70598C10746F20030C5F6020091
:100A600000291CBF42F20030C4F2020042F2003101
:100A7000C4F20201884212D1FFE742F20000C4F240
:100A8000020007F0B5FB039042F20010C4F202002E
:100A900007F0AEFB014603980843049007E046F2D6
:100AA0000000C5F6020007F0A3FB0490FFE70498DE
:100AB00068B9FFE72198806840F61F718843239A40
:100AC000116892681143084321998860FFE753E059
:100AD0002199886820F440408860249801680120AA
:100AE00042F20002C4F20202914202900CD0FFE7EF
:100AF000249800684DF60071CBF6FD710844B0FAF9
:100B000080F040090290FFE70298C10746F20030EA
:100B1000C5F6020000291CBF42F20030C4F20200F8
:100B200042F20031C4F20201884212D1FFE742F2E0
:100B30000000C4F2020007F05BFB009042F20010DC
:100B4000C4F2020007F054FB0146009808430190EC
:100B500007E046F20000C5F6020007F049FB0190ED
:100B6000FFE7019838B9FFE72199886840F61F72BE
:100B700090438860FFE7FFE708E02499486D40F064
:100B80002000486501208DF88B00FFE7FFE72499DE
:100B9000002081F85000FFE79DF88B008DF897004A
:100BA000FFE79DF8970026B080BD00000000000020
:100BB00080B5AAB02690259100208DF89300219051
:100BC000269890F83800012801D1FFE700E0FFE700
:100BD0002598C0680021C4F2FF71884201D0FFE768
:100BE0001EE02698006842F20001C4F20201884229
:100BF00001D1FFE7FFE72698006842F20011C4F236
:100C00000201884201D1FFE7FFE72698006846F21B
:100C10000001C5F60201884201D1FFE7FFE7FFE7C7
:100C2000FFE7269890F85000012804D1FFE7022042
:100C30008DF89F00F1E32699012081F85000FFE72D
:100C4000FFE72698006807F0E3FA002840F0D18318
:100C5000FFE72598C078000600282DD4FFE72598E7
:100C60000068000330B9FFE725980068C0F384608E
:100C70001E9015E02598006890FAA0F0289028981A
:100C800020B9FFE720208DF8A70005E02898B0FAEA
:100C900080F08DF8A700FFE79DF8A7001E90FFE702
:100CA0001E9800F01F01012000FA01F22698016849
:100CB000C8691043C861FFE72698006825990A684B
:100CC000496807F0B5FA2698006807F0A1FA209065
:100CD0002698006807F074FA1F902098002840F0CA
:100CE000B580FFE71F98002840F0B080FFE7269806
:100CF0000068259A1168926807F0EAFA41F200004C
:100D0000C5F60040006800F07040B0F1805F0BD184
:100D1000FFE72598406926990968C96801F01C0118
:100D2000490888401D901FE026980068C068C006EA
:100D300000280BD4FFE72598406926990968C968FF
:100D400001F01C01490888401C900AE02598406980
:100D500026990968C96801F01001490888401C906B
:100D6000FFE71C981D90FFE71D98239025980069C8
:100D7000042821D0FFE72698006825990A680969A8
:100D8000239B07F011FB26980068259A1169527E73
:100D9000013AB2FA82F25209D20707F021FB2698F3
:100DA0000068259A1169127E013AB2FA82F252095C
:100DB000D20207F0E5FA48E026980068006E00F0DD
:100DC000F84025990968B0EB816F07D1FFE72698B5
:100DD0000168086E20F000400866FFE7269800686A
:100DE000406E00F0F84025990968B0EB816F07D19B
:100DF000FFE726980168486E20F000404866FFE74C
:100E000026980068806E00F0F84025990968B0EBDC
:100E1000816F07D1FFE726980168886E20F00040B7
:100E20008866FFE726980068C06E00F0F8402599B4
:100E30000968B0EB816F07D1FFE726980168C86E9B
:100E400020F00040C866FFE7FFE7FFE7269800684C
:100E500007F0C6F9002840F0CB82FFE7269800682B
:100E6000259A1168D26807F04FFA2598C0680021CA
:100E7000C4F2FF71884240F05781FFE7269800686E
:100E80001B9042F20001C4F20201884240F0A480AB
:100E9000FFE7259800680221C0F23041884203D163
:100EA000FFE701201A9094E0259800680421C0F61D
:100EB0006001884205D1FFE74020C1F6201019905B
:100EC00084E0259800680821C0F69041884205D149
:100ED000FFE78020C1F65050189074E02598006814
:100EE0001021C1F2C001884206D1FFE740F2001094
:100EF000C2F28010179063E0259800682021C1F2AB
:100F0000F041884206D1FFE740F20020C2F2B05023
:100F1000169052E02598006840F20041C2F6002188
:100F2000884206D1FFE740F60000C2F63060159017
:100F300040E02598006840F60001C2F63061884222
:100F400006D1FFE741F20000C3F2602014902EE0CA
:100F50002598006841F20001C3F26021884206D161
:100F6000FFE742F20000C3F2906013901CE0259866
:100F700000680021C4F22131884205D1FFE700203A
:100F8000C4F2527012900CE0259801680022C4F659
:100F900084320020914204BF0020C4F6B870129041
:100FA000FFE712981390FFE713981490FFE7149847
:100FB0001590FFE715981690FFE716981790FFE732
:100FC00017981890FFE718981990FFE719981A904A
:100FD000FFE71A981190A2E02698006842F20011EB
:100FE000C4F20201884240F09480FFE7259800682F
:100FF0000221C0F23041884203D1FFE70120109066
:1010000084E0259800680421C0F66001884205D17B
:10101000FFE74020C1F620100F9074E0259800688B
:101020000821C0F69041884205D1FFE78020C1F633
:1010300050500E9064E0259800681021C1F2C00164
:10104000884206D1FFE740F20010C2F280100D90F6
:1010500053E0259800682021C1F2F041884206D172
:10106000FFE740F20020C2F2B0500C9042E0259819
:10107000006840F20041C2F60021884206D1FFE735
:1010800040F60000C2F630600B9030E02598006812
:1010900040F60001C2F63061884206D1FFE741F216
:1010A0000000C3F260200A901EE02598006841F21B
:1010B0000001C3F26021884206D1FFE742F200003E
:1010C000C3F2906009900CE0259801680022C4F6F4
:1010D00084320020914204BF0020C4F6B870099009
:1010E000FFE709980A90FFE70A980B90FFE70B9833
:1010F0000C90FFE70C980D90FFE70D980E90FFE71E
:101100000E980F90FFE70F981090FFE71098089047
:1011100002E000200890FFE708981190FFE71B9875
:10112000119907F0A5F8FFE72598C0780006002878
:1011300040F15D81FFE726980168012042F200023C
:10114000C4F20202914207900CD0FFE72698006893
:101150004DF60071CBF6FD710844B0FA80F04009FD
:101160000790FFE70798C10746F20030C5F6020076
:1011700000291CBF42F20030C4F2020007F018F848
:101180002290269801684FF0010042F20002C4F25A
:101190000202914206900CD0FFE7269800684DF6B7
:1011A0000071CBF6FD710844B0FA80F0400906905A
:1011B000FFE70698C10746F20030C5F60200002995
:1011C0001CBF42F20030C4F2020042F20031C4F20D
:1011D0000201884212D1FFE742F20000C4F202008D
:1011E00006F0FEFF049042F20010C4F2020006F086
:1011F000F7FF014604980843059007E046F2000017
:10120000C5F6020006F0ECFF0590FFE70598002800
:1012100040F0E380FFE7259800680021CCF6843198
:10122000884255D1FFE79DF88A00000600284FD478
:10123000FFE72698006846F20001C5F602018842E1
:1012400045D1FFE726980168012042F20002C4F26E
:101250000202914203900CD0FFE7269800684DF6F9
:101260000071CBF6FD710844B0FA80F0400903909C
:10127000FFE70398C10746F20030C5F602000029D7
:101280001CBF42F20030C4F20200229941F4000176
:1012900007F066F840F20000C2F2004000684FEA32
:1012A000901042F66351C0F23E51A0FB01104FEA8C
:1012B00090114FF0020000EB41002190FFE72198D0
:1012C00020B1FFE7219801382190F8E7FFE783E09C
:1012D000259800680021CCF25271884238D1FFE78E
:1012E0009DF88B00C00798BBFFE72698006846F280
:1012F0000001C5F60201884229D1FFE7269801685E
:10130000012042F20002C4F20202914202900CD08B
:10131000FFE7269800684DF60071CBF6FD71084492
:10132000B0FA80F040090290FFE70298C10746F248
:101330000030C5F6020000291CBF42F20030C4F2A2
:101340000200229941F0807107F00AF8FFE742E0BD
:10135000259800680021CCF6B871884239D1FFE7A2
:101360009DF88A004006002833D4FFE726980068DD
:1013700046F20001C5F60201884229D1FFE726980E
:101380000168012042F20002C4F20202914201907F
:101390000CD0FFE7269800684DF60071CBF6FD7182
:1013A0000844B0FA80F040090190FFE70198C107B6
:1013B00046F20030C5F6020000291CBF42F20030A0
:1013C000C4F20200229941F4800106F0C9FFFFE750
:1013D00000E0FFE7FFE7FFE708E02699486D40F0EF
:1013E0002000486501208DF89300FFE7FFE7FFE745
:1013F00008E02699486D40F02000486501208DF8EE
:101400009300FFE7FFE72699002081F85000FFE7EF
:101410009DF893008DF89F00FFE79DF89F002AB08C
:1014200080BD00000000000010B58CB00A900020C4
:101430008DF8270006900A9820B9FFE701208DF863
:101440002F00D1E10A98C06838B1FFE70A98007F01
:10145000012801D1FFE7FFE7FFE70A98406D50B987
:10146000FFE70A9800F0C4F90A99002088650A99F4
:1014700081F85000FFE70A98006806F0A9FE28B13D
:10148000FFE70A98006806F077FEFFE70A98006811
:1014900006F0B6FEE8B9FFE70A98006806F078FEA5
:1014A00040F20000C2F200400068800942F6635139
:1014B000C0F23E51A0FB0101012000EB911006900B
:1014C000FFE7069820B1FFE7069801380690F8E795
:1014D000FFE70A98006806F093FE70B9FFE70A99E3
:1014E000486D40F0100048650A99886D40F0010091
:1014F000886501208DF82700FFE70A98006806F04C
:1015000087FE07900A98406DC006002800F15E81B2
:10151000FFE70798002840F05981FFE70A98406DDF
:1015200040F0020020F480700A9948650A9800682B
:1015300006F056FE002870D1FFE70A9801680120E6
:1015400042F20002C4F20202914203900CD0FFE783
:101550000A9800684DF60071CBF6FD710844B0FAA8
:1015600080F040090390FFE70398C10746F200307E
:10157000C5F6020000291CBF42F20030C4F202008E
:1015800042F20031C4F20201884212D1FFE742F276
:101590000000C4F2020006F023FE019042F20010A7
:1015A000C4F2020006F01CFE0146019808430290B6
:1015B00007E046F20000C5F6020006F011FE0290B8
:1015C000FFE7029840BBFFE70A980168012042F25A
:1015D0000002C4F20202914200900CD0FFE70A9888
:1015E00000684DF60071CBF6FD710844B0FA80F04A
:1015F00040090090FFE70098C10746F20030C5F6A9
:10160000020000291CBF42F20030C4F202000A9915
:10161000496806F095FEFFE7FFE701F051F841F257
:101620000401884213D3FFE70A98806810280ED17E
:10163000FFE70A994A7D086B40EA42308A68104306
:10164000097F40EA014040F00C0008900BE00A9945
:101650004A7D086B40EA42308A681043097F40EABD
:1016600001400890FFE70A98007F01280BD1FFE7AF
:101670000A98016A0020CFF6FE7000EB41410898FD
:1016800008430890FFE70A98406A50B1FFE70A99BB
:10169000486A896A00F47870014308980843089002
:1016A000FFE70A980068C0684CF20301CFF6F071BA
:1016B0000840089908430A990968C8600A980068B0
:1016C00006F0A6FD05900A98006806F079FD0490E2
:1016D0000598002859D1FFE70498002855D1FFE765
:1016E0000A98017DC06A40EA813008900A98006833
:1016F000C06844F203018843089908430A990968BD
:10170000C8600A9890F83800012829D1FFE70A98A4
:10171000406A20B1FFE70A98806A08B9FFE7FFE74F
:101720000A98006800694FF61E01CFF6004100EAF2
:1017300001020A9B1968DC6BD3F840E0D3F844C07F
:101740000020CFF6FF7000EB044040EA0E0040EAB4
:101750000C009B6C1843104340F00100086106E048
:101760000A980168086920F001000861FFE70A98FB
:101770000068006920F070400A9A1168526B1043AB
:1017800008610A98FEF734FEFFE70A98C06801284E
:101790000CD1FFE70A980068006B20F00F000A9A4E
:1017A00011689269013A1043086306E00A980168DB
:1017B000086B20F00F000863FFE70A98406D40F0C7
:1017C000010020F002000A99486508E00A99486D76
:1017D00040F01000486501208DF82700FFE79DF8D4
:1017E00027008DF82F00FFE79DF82F000CB010BDEB
:1017F00080B594B0139000201290119010900F902B
:101800000E901398006842F20001C4F2020188426F
:1018100040F08480FFE7FFE744F2D840C5F60200BD
:10182000016841F020010160006800F020000D9087
:101830000D98FFE7FFE744F2E040C5F602000168BB
:1018400041F001010160006800F001000C900C986B
:10185000FFE7FFE744F2E040C5F60200016841F00F
:1018600004010160006800F004000B900B98FFE792
:10187000FFE744F2E040C5F60200016841F00201D2
:101880000160006800F002000A900A98FFE7FFE795
:1018900044F2E040C5F60200016841F02001016019
:1018A000006800F0200009900998FFE7C0200E9022
:1018B000032003900F900020049010900020C5F6A4
:1018C00002000EA9059100F017FD039A04980599EE
:1018D00010230E930F92109040F60000C5F6020000
:1018E00000F00AFD039A0498059902230E930F92C3
:1018F000109040F20040C5F6020000F0FDFC039A93
:10190000049805994FF4C0530E930F92109041F232
:101910000040C5F6020000F0EFFC54E013980068A8
:1019200046F20001C5F6020188424BD1FFE7FFE70E
:1019300044F2E040C5F60200016841F080710160A8
:10194000006800F0807008900898FFE7FFE744F215
:10195000E040C5F60200016841F020010160006826
:1019600000F0200007900798FFE7FFE744F2E0400F
:10197000C5F60200016841F004010160006800F052
:10198000040006900698FFE74FF4AA600E9003202B
:1019900000900F9000200190109041F20040C5F699
:1019A00002000EA9029100F0A7FC009A019802998A
:1019B0000E920F92109040F60000C5F6020000F063
:1019C0009BFCFFE7FFE714B080BD000000000000B3
:1019D00080B58AB008900791069200208DF8170014
:1019E000089818B1FFE7079820B9FFE701208DF8A4
:1019F000270049E107980069012801D1FFE7FFE7C7
:101A000007980068042801D1FFE706E0079880687E
:101A1000022801D1FFE7FFE7FFE7FFE708984079D9
:101A2000012804D1FFE702208DF827002CE1089956
:101A300001204871FFE7FFE7089902200871079825
:101A4000006804287ED1FFE700F042FE029006986D
:101A500078BBFFE7FFE708980068406B48F2000199
:101A6000C2F2000108421ED0FFE700F031FE0299E9
:101A7000401A022816D3FFE708980068406B48F226
:101A80000001C2F2000108420BD0FFE70899086983
:101A900040F0080008610899032008718DF82700BC
:101AA000F2E0FFE7D7E707988069089909680864BA
:101AB00026E0FFE708980068406BC00FD0B1FFE751
:101AC00000F006FE0299401A022812D3FFE7089898
:101AD0000068406BC00F58B1FFE70899086940F0F3
:101AE000080008610899032008718DF82700CBE0F1
:101AF000FFE7DFE707988069089909684864FFE70E
:101B000008980068806C069901F0100240F2FF31DD
:101B1000914088430799C969914008430899096829
:101B2000886408980068C06C069901F01002FF21D3
:101B3000914088430799096A9140084308990968C8
:101B4000C864FFE70798006901281ED1FFE70898DD
:101B50000068806B0490069800F010011F2000FAC6
:101B600001F1049888430490079840690390039812
:101B7000069901F0100100FA01F10498084304905D
:101B80000498089909688863FFE708980068C06BA3
:101B90000490069800F01001072000FA01F1049863
:101BA000884304900798C068012803D1FFE700200C
:101BB000019013E00798C068022803D1FFE70120D5
:101BC00001900AE00798806818B9FFE701200190AA
:101BD00002E000200190FFE7FFE7FFE707990868B0
:101BE000896808430199084303900398069901F016
:101BF000100100FA01F10498084304900498089930
:101C00000968C863069800F010014FF4804000FA9C
:101C100001F2089801680868904308600898006815
:101C200000680490069800F0100140F6FE7000FA7B
:101C300001F1049888430490079840680390039842
:101C4000069901F0100100FA01F10498084304908C
:101C50000498089909680860069800F01001C020EF
:101C600000FA01F208980168086890430860089932
:101C700001200871FFE7089900204871FFE79DF8EF
:101C800017008DF82700FFE79DF827000AB080BDF8
:101C900080B582B00090009820B9FFE701208DF850
:101CA000070016E00098007938B9FFE70099002096
:101CB0004871009800F014F8FFE7009902200871BD
:101CC000009900200861009A012111718DF8070028
:101CD000FFE79DF8070002B080BD00000000000093
:101CE00080B588B00790002006900590049003907E
:101CF00002900798006847F20041C4F20001884250
:101D00002BD1FFE7FFE744F2E840C5F60200016887
:101D100041F000510160006800F00050019001980E
:101D2000FFE7FFE744F2E040C5F60200016841F03A
:101D300001010160006800F0010000900098FFE7D9
:101D40003020029003200390002004900020C5F66C
:101D5000020002A900F0D0FAFFE708B080BD000041
:101D600080B598B016904BF2F461C0F6000101A85E
:101D70004C22FEF7E2FA169820B9FFE701208DF811
:101D80005F00D9E1169800684AF20001C4F2000130
:101D9000884206D1FFE71699086800F58070486010
:101DA000FFE716988068B0F5407F01D1FFE7FFE7B5
:101DB0001698006C08B1FFE7FFE71698806C08B131
:101DC000FFE7FFE71698006D08B1FFE7FFE71698F9
:101DD000006E08B1FFE7FFE71699C86D096E084469
:101DE00008B1FFE7FFE7169890F8980040B9FFE7C1
:101DF0001699002081F89900169800F0A1F9FFE7E4
:101E000016980168886920F01000886100F060FC75
:101E10001590FFE71698006880690007002817D51D
:101E2000FFE700F055FC1599401A0B280FD3FFE788
:101E30001699D1F89C0040F00100C1F89C00169959
:101E4000032081F8980001208DF85F0074E1E1E73C
:101E500016980168886940F00100886100F038FC3C
:101E60001590FFE7169800688069C007B8B9FFE7CA
:101E700000F02EFC1599401A0B280FD3FFE7169996
:101E8000D1F89C0040F00100C1F89C001699032095
:101E900081F8980001208DF85F004DE1E2E7169887
:101EA0000168886940F0020088611698007C01286A
:101EB00007D1FFE716980168886920F04000886123
:101EC00006E016980168886940F040008861FFE7E5
:101ED0001698407C012807D1FFE7169801688869A9
:101EE00040F48040886106E016980168886920F413
:101EF00080408861FFE71698807C012807D1FFE7C2
:101F000016980168886920F48050886106E0169868
:101F10000168886940F480508861FFE7169800687E
:101F2000806920F44070169A1168926810438861A5
:101F300016980168886920F0A400886116980168E5
:101F4000086920F0100008611698C068012807D1C0
:101F5000FFE716980168886940F0040088612BE06B
:101F60001698C06830B3FFE71698C068022819D0E9
:101F7000FFE716980168886940F08000886116982C
:101F80000168086940F0100008611698C0680328CD
:101F900007D1FFE716980168886940F02000886142
:101FA000FFE706E016980168886940F02000886124
:101FB000FFE700E0FFE7FFE7169A116853699069B1
:101FC000D2F81CE0A0F1010C6FF0FF0000EB0E2036
:101FD00040EA4C60126A013A10430022CFF6FF72C9
:101FE00002EB03421043C86116988068B0F5407F49
:101FF0001CD1FFE7169A1168536A906AD2F82CE058
:1020000001386FF0FF0C0CEB0E2C40EA0C00D2F8FC
:1020100030C06FF00F0202EB0C1210430022CFF61B
:10202000FF7202EB03421043C860FFE71698006E90
:1020300048B1FFE716980168426ED1F8C00010431E
:10204000C1F8C000FFE71699C86D096E084480B159
:10205000FFE716980068D0F8C80020F00700169A2D
:102060001168936E01AA52F823201043C1F8C800EA
:10207000FFE71698006C80B1FFE716980068D0F86B
:10208000BC0020F00700169A1168536C01AA52F8A0
:1020900023201043C1F8BC00FFE71698806C88B17C
:1020A000FFE716980068D0F8BC0020F07000169A80
:1020B0001168D36C01AA52F8232040EA0210C1F83B
:1020C000BC00FFE71698006D88B1FFE7169800681E
:1020D000D0F8BC0020F4E060169A1168536D01AA94
:1020E00052F8232040EA0220C1F8BC00FFE716980E
:1020F00000684AF20001C4F20001884207D1FFE7FC
:1021000016984168886820F003008860FFE71699F8
:102110000020C1F894001699C1F89C00169901207E
:1021200081F898001698FEF793FA8DF853009DF801
:1021300053008DF85F00FFE79DF85F0018B080BD89
:1021400080B5C0B03F9000203E903D903C903B90C9
:102150003A900AA8C021FEF709F93F9800684AF2B0
:102160000001C4F2000188426ED1FFE700200B900D
:102170004FF400410A9126900AA802F0F9F818B12C
:10218000FFE7FEF749FAFFE740F21000C2F2004015
:102190000168013101600068012810D1FFE7FFE705
:1021A00044F2EC40C5F60200016841F48071016020
:1021B000006800F4807009900998FFE7FFE7FFE7E7
:1021C00044F2E040C5F60200016841F001010160FF
:1021D000006800F0010008900898FFE7FFE744F26C
:1021E000E040C5F60200016841F08001016000682E
:1021F00000F0800007900798FFE74FF400603A90E6
:10220000022001903B90002002903C903D900920DC
:1022100003903E900020C5F602003AA9049100F018
:102220006BF8019B029A039804994FF4005CCDF877
:10223000E8C03B933C923D923E9041F60040C5F68B
:10224000020000F059F853E03F9800684AF200415C
:10225000C4F2000188424AD1FFE700200B904FF4FE
:1022600000410A9126900AA802F082F818B1FFE70F
:10227000FEF7D2F9FFE740F21000C2F20040016819
:10228000013101600068012810D1FFE7FFE744F247
:10229000EC40C5F60200016841F4807101600068FD
:1022A00000F4807006900698FFE7FFE7FFE744F22E
:1022B000E040C5F60200016841F0020101600068DB
:1022C00000F0020005900598FFE74FF440503A9067
:1022D00002203B9000203C903D9009203E9040F22F
:1022E0000040C5F602003AA900F006F8FFE7FFE754
:1022F00040B080BD0000000090B00F900E91002013
:102300000D908020C5F600000A90FFE70E98006847
:102310000D99C840002800F0CF81FFE70E980068B3
:102320000D9A0121914008400C900C98002800F073
:10233000BF81FFE70E98406800F00300012807D036
:10234000FFE70E98406800F0030002282FD1FFE756
:102350000F9880680B900D984100032000FA01F15E
:102360000B9888430B900E98C0680D99490000FAAD
:1023700001F10B9808430B900B980F9988600F9808
:1023800040680B900D99012000FA01F10B988843E9
:102390000B900E984068C0F300100D9900FA01F1FF
:1023A0000B9808430B900B980F994860FFE70E9825
:1023B000406800F00300032818D0FFE70F98C068BA
:1023C0000B900D984100032000FA01F10B9888430F
:1023D0000B900E9880680D99490000FA01F10B9856
:1023E00008430B900B980F99C860FFE70E98406860
:1023F00000F00300022826D1FFE70F980D996FF037
:10240000030202EA51010844006A0B900D9800F0A3
:10241000070081000F2000FA01F10B9888430B9010
:102420000E9800690D9901F00701890000FA01F189
:102430000B9808430B900B980F990D9B02EA5302DF
:1024400011440862FFE70F9800680B900D98410057
:10245000032000FA01F10B9888430B900E98406816
:1024600000F003000D99490000FA01F10B980843B0
:102470000B900B980F9908600E98807980070028C0
:1024800000F01581FFE7FFE744F2F440C5F60200D3
:10249000016841F002010160006800F0020009904B
:1024A0000998FFE70D9820F0030040F20841C5F6B7
:1024B000000140580B900D9800F0030081000F20A0
:1024C00000FA01F10B9888430B900F980021C5F694
:1024D0000201884203D1FFE7002008907AE00F98BC
:1024E00040F20041C5F60201884203D1FFE7012016
:1024F00007906CE00F9840F60001C5F60201884293
:1025000003D1FFE7022006905EE00F9840F60041FD
:10251000C5F60201884203D1FFE70320059050E091
:102520000F9841F20001C5F60201884203D1FFE78E
:102530000420049042E00F9841F20041C5F60201E8
:10254000884203D1FFE70520039034E00F9841F65D
:102550000001C5F60201884203D1FFE70620029080
:1025600026E00F9841F60041C5F60201884203D1EA
:10257000FFE70720019018E00F9842F20001C5F62E
:102580000201884203D1FFE7082000900AE00F997A
:1025900042F20042C5F602020A20914208BF092019
:1025A0000090FFE700980190FFE701980290FFE795
:1025B00002980390FFE703980490FFE704980590C2
:1025C000FFE705980690FFE706980790FFE7079852
:1025D0000890FFE708980D9901F00301890000FABF
:1025E00001F10B9808430B900B980D9921F0030112
:1025F00040F20842C5F6000288504FF0B040006833
:102600000B900C990B9888430B900E988079C0061C
:10261000002805D5FFE70C990B9808430B90FFE7BE
:102620000B984FF0B04108600420C5F60000006828
:102630000B900C990B9888430B900E98807980062C
:10264000002805D5FFE70C990B9808430B90FFE78E
:102650000B980421C5F6000108600A9840680B90A9
:102660000C990B9888430B900E988079800700286E
:1026700005D5FFE70C990B9808430B90FFE70B98E3
:102680000A9948600A9800680B900C990B98884347
:102690000B900E988079C00728B1FFE70C990B9832
:1026A00008430B90FFE70B980A990860FFE7FFE7E4
:1026B0000D9801300D9029E610B070470000000021
:1026C00041F20000C5F600400068000C70470000B1
:1026D00040F61850C2F20040006870470000000049
:1026E00083B001900091019890F8410020283BD1DF
:1026F000FFE7FFE7019890F84000012804D1FFE7C9
:1027000002208DF80B0033E00199012081F8400090
:10271000FFE7FFE70199242081F841000198016853
:10272000086820F00100086001980168086820F43A
:1027300080500860009A019801680868104308609A
:1027400001980168086840F00100086001992020A4
:1027500081F84100FFE70199002081F84000FFE780
:1027600000208DF80B0003E002208DF80B00FFE73E
:102770009DF80B0003B0704784B00290019102985D
:1027800090F84100202840D1FFE7FFE7029890F839
:102790004000012804D1FFE702208DF80F0038E047
:1027A0000299012081F84000FFE7FFE70299242009
:1027B00081F8410002980168086820F00100086073
:1027C0000298006800680090009820F47060009003
:1027D0000199009840EA0120009000980299096848
:1027E000086002980168086840F0010008600299DA
:1027F000202081F84100FFE70299002081F8400085
:10280000FFE700208DF80F0003E002208DF80F0095
:10281000FFE79DF80F0004B07047000000000000C3
:1028200080B582B00090009820B9FFE701208DF8B4
:1028300007007BE0009890F8410040B9FFE700995D
:10284000002081F84000009800F076F8FFE700993A
:10285000242081F8410000980168086820F00100F8
:10286000086000980168406820F070600861009876
:102870000168886820F4004088600098C0680128DA
:1028800007D1FFE700980168806840F40040886045
:1028900006E000980168806840F404408860FFE723
:1028A0000098C068022807D1FFE7009801684868CF
:1028B00040F40060486006E000980168486820F431
:1028C00000604860FFE700980168486848F200022D
:1028D000C0F200221043486000980168C86820F4E4
:1028E0000040C860009A11681069536992691843E2
:1028F00040EA0220C860009A1168D069126A104349
:10290000086000980168086840F0010008600099BC
:1029100000204864009A202182F841100099086341
:10292000009981F842008DF80700FFE79DF8070045
:1029300002B080BD0000000080B5C4B0439000200C
:102940004290419040903F903E900EA8C021FDF7EC
:102950000DFD4398006845F20041C4F20001884231
:102960003CD1FFE700200F9008210E912F900EA878
:1029700001F0FEFC18B1FFE7FDF74EFEFFE7FFE7B1
:1029800044F2E040C5F60200016841F00201016036
:10299000006800F002000D900D98FFE7C0203E9007
:1029A00012203F900020409041900420429040F23D
:1029B0000040C5F602003EA9FFF79EFCFFE744F287
:1029C000E840C5F60200016841F4001101600068AA
:1029D00000F400100C900C98FFE7F8E043980068B2
:1029E00045F60001C4F2000188423CD1FFE7002017
:1029F0000F9008210E912F900EA801F0B9FC18B18C
:102A0000FFE7FDF709FEFFE7FFE744F2E040C5F608
:102A10000200016841F080010160006800F0800060
:102A20000B900B98FFE730203E9012203F90002043
:102A3000409041900420429041F60040C5F60200CB
:102A40003EA9FFF759FCFFE744F2E840C5F6020053
:102A5000016841F480010160006800F480000A9080
:102A60000A98FFE7B2E04398006845F60041C4F2D7
:102A70000001884262D1FFE700200F9008210E91EB
:102A80002F900EA801F074FC18B1FFE7FDF7C4FD0C
:102A9000FFE7FFE744F2E040C5F60200016841F0BD
:102AA00080010160006800F0800009900998FFE74C
:102AB000FFE744F2E040C5F60200016841F0010181
:102AC0000160006800F0010008900898FFE74FF4EB
:102AD000807000903E90122001903F900020029064
:102AE0004090419004200390429041F60040C5F68A
:102AF00002003EA90491FFF7FFFBDDF800C0019B37
:102B0000029A03980499CDF8F8C03F9340924192FD
:102B100042900020C5F60200FFF7EEFBFFE744F20B
:102B2000E840C5F60200016841F400010160006858
:102B300000F4000007900798FFE746E0439800681C
:102B400041F60041C5F6000188423DD1FFE7002073
:102B50000F9010210E9134900EA801F009FC18B1CD
:102B6000FFE7FDF759FDFFE7FFE744F2E040C5F658
:102B70000200016841F020010160006800F02000BF
:102B800006900698FFE74FF440403E9012203F9099
:102B90000020409041900420429041F20040C5F650
:102BA00002003EA9FFF7A8FBFFE744F2F440C5F698
:102BB0000200016841F080010160006800F08000BF
:102BC00005900598FFE7FFE7FFE7FFE7FFE744B061
:102BD00080BD00000000000040F20800C2F200408A
:102BE000027840F61851C2F20041086810440860AB
:102BF000704700000000000080B582B0032000F0A4
:102C000017F902F0A5FE44F21842C5F60202116857
:102C1000C1F303234BF24071C0F60001CB5C03F01B
:102C20001F03D84000900098126802F00F02895CE0
:102C300001F01F01C84040F20401C2F200410860E7
:102C4000009840F20001C2F2004108600F2000F03D
:102C500013F820B1FFE701208DF8070005E000F030
:102C6000BBF800208DF80700FFE79DF8070002B0D1
:102C700080BD00000000000080B582B0009040F2EE
:102C80000800C2F20040007820B9FFE701208DF86B
:102C9000070030E040F20000C2F20040006840F25D
:102CA0000801C2F200410A784FF47A71B1FBF2F1E7
:102CB000B0FBF1F004F018F920B1FFE701208DF826
:102CC000070018E000980F280DD8FFE700994FF093
:102CD000FF30002200F094F8009840F20C01C2F29C
:102CE0000041086003E001208DF8070003E00020A8
:102CF0008DF80700FFE79DF8070002B080BD0000D7
:102D000010B581B00090009840784EF69851CEF200
:102D1000000108604EF6A051CEF20001086820F0D4
:102D200001000860009840684EF69C52CEF2000206
:102D30001060DDF800E09EF80C0000079EF80B2004
:102D400040EA02609EF800209EF808309EF809C014
:102D50009EF80A4040EAC4409EF80D4040EA844094
:102D60009EF80E4040EA44409EF80FE040EA0E40D4
:102D700040EA0C2040EA43001043086001B010BD57
:102D8000BFF35F8F4EF62451CEF20001086820F4A5
:102D9000803008604EF69451CEF2000100200860A9
:102DA000704700000000000081B00090009840F0E3
:102DB00001004EF69451CEF2000108604EF6245107
:102DC000CEF20001086840F480300860BFF34F8FF6
:102DD000BFF36F8F01B0704781B0FFE744F2F4405A
:102DE000C5F60200016841F002010160006800F0D0
:102DF000020000900098FFE701B07047000000005B
:102E000080B586B0ADF816000491039208F0CCFBB3
:102E10000290BDF91600019002980499039A06F0F9
:102E200053FC0146019808F0C7FB06B080BD0000C6
:102E300080B582B00190019808F0E2FB02B080BD3D
:102E400080B584B0029044F60C00C5F6020000681C
:102E500000F004010020B0EB910F13D1FFE744F61E
:102E60000C00C5F60200006800F0070002998842D5
:102E700004D0FFE701208DF80F002EE000208DF830
:102E80000F002AE044F60C01C5F60201086820F0A4
:102E90000700029A10430860FFF71AFC0190FFE751
:102EA00044F60400C5F60200006800F4005100205A
:102EB000B0EB513F0DD1FFE7FFF70AFC0199401A33
:102EC000B0F57A7F04D9FFE701208DF80F0004E008
:102ED000E6E700208DF80F00FFE79DF80F0004B033
:102EE00080BD00000000000080B502F0DDFC44F26F
:102EF0002041C5F602010968C1F302124BF240718C
:102F0000C0F60001895C01F01F01C84080BD0000CF
:102F100088B0079044F22840C5F60200016801F02D
:102F2000030106910068C0F30510059044F22C409F
:102F3000C5F60200006800F001000490049844F215
:102F40003441C5F60201096889B2C908484300EE58
:102F5000100AB8EE400A8DED020A0598002800F02C
:102F60001B81FFE70698009048B1FFE70098012811
:102F700069D0FFE70098022800F08980ABE044F2B6
:102F80000040C5F60200006800F020010020B0EB10
:102F9000511F33D0FFE744F20040C5F6020000683D
:102FA000C0F3C10149F20000C0F2D030C840039024
:102FB0009DED030AB8EE400A9DED051AB8EE411AE0
:102FC00080EE010A44F23040C5F6020000686FF35B
:102FD0005F2001EE100AB8EE411A9DED022A9FED26
:102FE000743A82EE032A31EE021AB7EE002A31EE6D
:102FF000021A20EE010A8DED010A23E09DED050A7B
:10300000B8EE401A9FED6C0A80EE010A44F230409F
:10301000C5F6020000686FF35F2001EE100AB8EEFB
:10302000411A9DED022A9FED623A82EE032A31EEAB
:10303000021AB7EE002A31EE021A20EE010A8DEDD7
:10304000010AFFE76BE09DED050AB8EE401A9FED1F
:10305000590A80EE010A44F23040C5F602000068C9
:103060006FF35F2001EE100AB8EE411A9DED022ABF
:103070009FED4F3A82EE032A31EE021AB7EE002A94
:1030800031EE021A20EE010A8DED010A47E09DEDB6
:10309000050AB8EE401A9FED450A80EE010A44F297
:1030A0003040C5F6020000686FF35F2001EE100AA1
:1030B000B8EE411A9DED022A9FED3D3A82EE032AB9
:1030C00031EE021AB7EE002A31EE021A20EE010AA2
:1030D0008DED010A23E09DED050AB8EE401A9FED43
:1030E000360A80EE010A44F23040C5F6020000685C
:1030F0006FF35F2001EE100AB8EE411A9DED022A2F
:103100009FED2B3A82EE032A31EE021AB7EE002A27
:1031100031EE021A20EE010A8DED010AFFE79DED66
:10312000010A44F23040C5F60200016889B2490A3A
:1031300001EE101AB8EE411AB7EE002A31EE021A6B
:1031400080EE010A0799BCEEC00A81ED000A9DEDF0
:10315000010A0168C1F3064101EE101AB8EE411AE6
:1031600031EE021A80EE010A0799BCEEC00A81ED29
:10317000010A9DED010A0068C0F3066001EE100A25
:10318000B8EE411A31EE021A80EE010A0798BCEE41
:10319000C00A80ED020A07E007990020086007993D
:1031A000486007998860FFE708B07047001BB74B7D
:1031B000000000460024744A0024744C0000000003
:1031C00088B0079044F22840C5F60200016801F07B
:1031D000030106910068C0F30530059044F22C40CD
:1031E000C5F602000068C0F300100490049844F291
:1031F0003C41C5F60201096889B2C908484300EE9E
:10320000100AB8EE400A8DED020A0598002800F079
:103210001B81FFE70698009048B1FFE7009801285E
:1032200069D0FFE70098022800F08980ABE044F203
:103230000040C5F60200006800F020010020B0EB5D
:10324000511F33D0FFE744F20040C5F6020000688A
:10325000C0F3C10149F20000C0F2D030C840039071
:103260009DED030AB8EE400A9DED051AB8EE411A2D
:1032700080EE010A44F23840C5F6020000686FF3A0
:103280005F2001EE100AB8EE411A9DED022A9FED73
:10329000743A82EE032A31EE021AB7EE002A31EEBA
:1032A000021A20EE010A8DED010A23E09DED050AC8
:1032B000B8EE401A9FED6C0A80EE010A44F23840E5
:1032C000C5F6020000686FF35F2001EE100AB8EE49
:1032D000411A9DED022A9FED623A82EE032A31EEF9
:1032E000021AB7EE002A31EE021A20EE010A8DED25
:1032F000010AFFE76BE09DED050AB8EE401A9FED6D
:10330000590A80EE010A44F23840C5F6020000680E
:103310006FF35F2001EE100AB8EE411A9DED022A0C
:103320009FED4F3A82EE032A31EE021AB7EE002AE1
:1033300031EE021A20EE010A8DED010A47E09DED03
:10334000050AB8EE401A9FED450A80EE010A44F2E4
:103350003840C5F6020000686FF35F2001EE100AE6
:10336000B8EE411A9DED022A9FED3D3A82EE032A06
:1033700031EE021AB7EE002A31EE021A20EE010AEF
:103380008DED010A23E09DED050AB8EE401A9FED90
:10339000350A80EE010A44F23840C5F602000068A2
:1033A0006FF35F2001EE100AB8EE411A9DED022A7C
:1033B0009FED2B3A82EE032A31EE021AB7EE002A75
:1033C00031EE021A20EE010A8DED010AFFE79DEDB4
:1033D000010A44F23840C5F60200016889B2490A80
:1033E00001EE101AB8EE411AB7EE002A31EE021AB9
:1033F00080EE010A0799BCEEC00A81ED000A9DED3E
:10340000010A0168C1F3064101EE101AB8EE411A33
:1034100031EE021A80EE010A0799BCEEC00A81ED76
:10342000010A9DED010A0068C0F3066001EE100A72
:10343000B8EE411A31EE021A80EE010A0798BCEE8E
:10344000C00A80ED020A07E007990020086007998A
:10345000486007998860FFE708B07047001BB74BCA
:10346000000000460024744A0024744C0000000050
:1034700088B0079044F22840C5F60200016801F0C8
:10348000030106910068C0F30550059044F22C40FA
:10349000C5F602000068C0F300200490049844F2CE
:1034A0004441C5F60201096889B2C908484300EEE3
:1034B000100AB8EE400A8DED020A0598002800F0C7
:1034C0001B81FFE70698009048B1FFE700980128AC
:1034D00069D0FFE70098022800F08980ABE044F251
:1034E0000040C5F60200006800F020010020B0EBAB
:1034F000511F33D0FFE744F20040C5F602000068D8
:10350000C0F3C10149F20000C0F2D030C8400390BE
:103510009DED030AB8EE400A9DED051AB8EE411A7A
:1035200080EE010A44F24040C5F6020000686FF3E5
:103530005F2001EE100AB8EE411A9DED022A9FEDC0
:10354000743A82EE032A31EE021AB7EE002A31EE07
:10355000021A20EE010A8DED010A23E09DED050A15
:10356000B8EE401A9FED6C0A80EE010A44F240402A
:10357000C5F6020000686FF35F2001EE100AB8EE96
:10358000411A9DED022A9FED623A82EE032A31EE46
:10359000021AB7EE002A31EE021A20EE010A8DED72
:1035A000010AFFE76BE09DED050AB8EE401A9FEDBA
:1035B000590A80EE010A44F24040C5F60200006854
:1035C0006FF35F2001EE100AB8EE411A9DED022A5A
:1035D0009FED4F3A82EE032A31EE021AB7EE002A2F
:1035E00031EE021A20EE010A8DED010A47E09DED51
:1035F000050AB8EE401A9FED450A80EE010A44F232
:103600004040C5F6020000686FF35F2001EE100A2B
:10361000B8EE411A9DED022A9FED3D3A82EE032A53
:1036200031EE021AB7EE002A31EE021A20EE010A3C
:103630008DED010A23E09DED050AB8EE401A9FEDDD
:10364000350A80EE010A44F24040C5F602000068E7
:103650006FF35F2001EE100AB8EE411A9DED022AC9
:103660009FED2B3A82EE032A31EE021AB7EE002AC2
:1036700031EE021A20EE010A8DED010AFFE79DED01
:10368000010A44F24040C5F60200016889B2490AC5
:1036900001EE101AB8EE411AB7EE002A31EE021A06
:1036A00080EE010A0799BCEEC00A81ED000A9DED8B
:1036B000010A0168C1F3064101EE101AB8EE411A81
:1036C00031EE021A80EE010A0799BCEEC00A81EDC4
:1036D000010A9DED010A0068C0F3066001EE100AC0
:1036E000B8EE411A31EE021A80EE010A0798BCEEDC
:1036F000C00A80ED020A07E00799002008600799D8
:10370000486007998860FFE708B07047001BB74B17
:10371000000000460024744A0024744C000000009D
:1037200080B59AB0199118901898199980F4807002
:103730000843002840F0A880FFE744F25040C5F657
:103740000200006800F007000D900D980A90042810
:1037500000F295800A99DFE801F00316298C3C00FD
:1037600044F20040C5F6020000688001002806D53A
:10377000FFE715A8FFF7CCFB16980E9002E000209B
:103780000E90FFE77EE044F20040C5F602000068BC
:103790000001002806D5FFE712A8FFF711FD1298D7
:1037A0000E9002E000200E90FFE76BE044F2004034
:1037B000C5F6020000688000002806D5FFE70FA8C4
:1037C000FFF756FE0F980E9002E000200E90FFE7E4
:1037D00058E044F24C40C5F60200006800F040504A
:1037E0000C9044F20040C5F6020000684007002833
:1037F00011D5FFE70C9870B9FFE744F20040C5F619
:1038000002000068C0F3C10149F20000C0F2D030EC
:10381000C8400E902CE044F20040C5F6020000685B
:10382000C00500280BD5FFE70C98B0F1805F06D1EA
:10383000FFE740F60010C0F23D000E9017E044F2A2
:103840000040C5F602000068800300280BD5FFE7A2
:103850000C98B0F1005F06D1FFE743F20060C0F2C0
:103860006E100E9002E000200E90FFE7FFE7FFE7EA
:1038700008E048F20000C0F2BB000E9002E0002019
:103880000E90FFE700F06EBD1898199980F4007053
:103890000843002840F0B380FFE744F25040C5F6EB
:1038A0000200006800F4E0700D900D98099090B14E
:1038B000FFE70998402821D0FFE70998802830D0F9
:1038C000FFE70998C02800F08F80FFE70998B0F55E
:1038D000807F39D08EE044F20040C5F602000068D7
:1038E0008001002806D5FFE715A8FFF711FB169801
:1038F0000E9002E000200E90FFE77EE044F20040D0
:10390000C5F6020000680001002806D5FFE712A8EE
:10391000FFF756FC12980E9002E000200E90FFE791
:103920006BE044F20040C5F6020000688000002809
:1039300006D5FFE70FA8FFF79BFD0F980E9002E05A
:1039400000200E90FFE758E044F24C40C5F602001C
:10395000006800F040500C9044F20040C5F60200B0
:1039600000684007002811D5FFE70C9870B9FFE701
:1039700044F20040C5F602000068C0F3C10149F2FC
:103980000000C0F2D030C8400E902CE044F200405D
:10399000C5F602000068C00500280BD5FFE70C98AB
:1039A000B0F1805F06D1FFE740F60010C0F23D00A5
:1039B0000E9017E044F20040C5F602000068800354
:1039C00000280BD5FFE70C98B0F1005F06D1FFE7A8
:1039D00043F20060C0F26E100E9002E000200E90E4
:1039E000FFE7FFE7FFE708E048F20000C0F2BB0096
:1039F0000E9002E000200E90FFE700F0B2BC189895
:103A0000199980F480600843002840F0B580FFE7F2
:103A100044F25840C5F60200006800F460000D90C2
:103A20000D980890A8B1FFE70898B0F5001F23D0C3
:103A3000FFE70898B0F5800F31D0FFE70898B0F5A0
:103A4000C00F00F08F80FFE70898B0F5000F39D065
:103A50008EE044F20040C5F60200006880010028B4
:103A600006D5FFE715A8FFF753FA16980E9002E067
:103A700000200E90FFE77EE044F20040C5F6020011
:103A800000680001002806D5FFE712A8FFF798FBA1
:103A900012980E9002E000200E90FFE76BE044F2D7
:103AA0000040C5F6020000688000002806D5FFE748
:103AB0000FA8FFF7DDFC0F980E9002E000200E909B
:103AC000FFE758E044F24C40C5F60200006800F001
:103AD00040500C9044F20040C5F6020000684007D8
:103AE000002811D5FFE70C9870B9FFE744F20040B9
:103AF000C5F602000068C0F3C10149F20000C0F23F
:103B0000D030C8400E902CE044F20040C5F60200D0
:103B10000068C00500280BD5FFE70C98B0F1805F66
:103B200006D1FFE740F60010C0F23D000E9017E00E
:103B300044F20040C5F602000068800300280BD55F
:103B4000FFE70C98B0F1005F06D1FFE743F2006099
:103B5000C0F26E100E9002E000200E90FFE7FFE72B
:103B6000FFE708E048F20000C0F2BB000E9002E060
:103B700000200E90FFE7F3E31898199980F4006095
:103B80000843002840F0B580FFE744F25840C5F6EE
:103B90000200006800F0E0600D900D980790A8B159
:103BA000FFE70798B0F1807F23D0FFE70798B0F1D7
:103BB000007F31D0FFE70798B0F1407F00F08F80A1
:103BC000FFE70798B0F1806F39D08EE044F20040F3
:103BD000C5F6020000688001002806D5FFE715A899
:103BE000FFF796F916980E9002E000200E90FFE77E
:103BF0007EE044F20040C5F60200006800010028A3
:103C000006D5FFE712A8FFF7DBFA12980E9002E044
:103C100000200E90FFE76BE044F20040C5F6020082
:103C200000688000002806D5FFE70FA8FFF720FCFA
:103C30000F980E9002E000200E90FFE758E044F24B
:103C40004C40C5F60200006800F040500C9044F271
:103C50000040C5F6020000684007002811D5FFE7C4
:103C60000C9870B9FFE744F20040C5F60200006806
:103C7000C0F3C10149F20000C0F2D030C8400E903C
:103C80002CE044F20040C5F602000068C0050028A0
:103C90000BD5FFE70C98B0F1805F06D1FFE740F647
:103CA0000010C0F23D000E9017E044F20040C5F64F
:103CB00002000068800300280BD5FFE70C98B0F1E4
:103CC000005F06D1FFE743F20060C0F26E100E9075
:103CD00002E000200E90FFE7FFE7FFE708E048F270
:103CE0000000C0F2BB000E9002E000200E90FFE743
:103CF00035E31898199980F480500843002840F063
:103D0000B580FFE744F25040C5F60200006800F4B9
:103D1000E0400B900B980690A8B1FFE70698B0F52D
:103D2000805F23D0FFE70698B0F5005F31D0FFE752
:103D30000698B0F5405F00F08F80FFE70698B0F579
:103D4000804F39D08EE044F20040C5F60200006892
:103D50008001002806D5FFE715A8FFF7D9F81698C7
:103D60000E9002E000200E90FFE77EE044F200405B
:103D7000C5F6020000680001002806D5FFE712A87A
:103D8000FFF71EFA12980E9002E000200E90FFE757
:103D90006BE044F20040C5F6020000688000002895
:103DA00006D5FFE70FA8FFF763FB0F980E9002E020
:103DB00000200E90FFE758E044F24C40C5F60200A8
:103DC000006800F040500C9044F20040C5F602003C
:103DD00000684007002811D5FFE70C9870B9FFE78D
:103DE00044F20040C5F602000068C0F3C10149F288
:103DF0000000C0F2D030C8400E902CE044F20040E9
:103E0000C5F602000068C00500280BD5FFE70C9836
:103E1000B0F1805F06D1FFE740F60010C0F23D0030
:103E20000E9017E044F20040C5F6020000688003DF
:103E300000280BD5FFE70C98B0F1005F06D1FFE733
:103E400043F20060C0F26E100E9002E000200E906F
:103E5000FFE7FFE7FFE708E048F20000C0F2BB0021
:103E60000E9002E000200E90FFE777E21898199973
:103E700080F400500843002840F09580FFE744F2AA
:103E80005040C5F60200006800F4E0200B900B984B
:103E90000590C8B1FFE70598B0F5803F18D0FFE75F
:103EA0000598B0F5003F26D0FFE70598B0F5403FF4
:103EB00034D0FFE70598B0F5802F4AD0FFE705988A
:103EC000B0F5A02F58D06AE001F01AFD0E9069E01D
:103ED00044F20040C5F6020000680001002806D543
:103EE000FFE712A8FFF76CF913980E9002E000208C
:103EF0000E90FFE756E044F20040C5F6020000686D
:103F00008000002806D5FFE70FA8FFF7B1FA109848
:103F10000E9002E000200E90FFE743E044F20040E4
:103F2000C5F602000068400700280ED5FFE744F2FE
:103F30000040C5F602000068C0F3C10149F200006C
:103F4000C0F2D030C8400E9002E000200E90FFE793
:103F500028E044F20040C5F602000068C0050028D1
:103F600006D5FFE740F60010C0F23D000E9002E0DB
:103F700000200E90FFE715E044F20040C5F6020075
:103F800000688003002806D5FFE743F20060C0F216
:103F90006E100E9002E000200E90FFE702E000207D
:103FA0000E90FFE7D9E11898199980F40020084392
:103FB000002840F09180FFE744F25840C5F6020027
:103FC000006800F440300B900B98049050B1FFE76C
:103FD0000498B0F5803F18D0FFE70498B0F5003F93
:103FE00026D075E044F20040C5F6020000680001EA
:103FF000002806D5FFE712A8FFF7E2F812980E9006
:1040000002E000200E90FFE765E044F20040C5F6B4
:10401000020000688000002806D5FFE70FA8FFF720
:1040200027FA11980E9002E000200E90FFE752E070
:1040300044F24C40C5F60200006800F040500C907D
:1040400044F20040C5F6020000684007002811D580
:10405000FFE70C9870B9FFE744F20040C5F6020094
:104060000068C0F3C10149F20000C0F2D030C8407E
:104070000E902CE044F20040C5F602000068C00536
:1040800000280BD5FFE70C98B0F1805F06D1FFE761
:1040900040F60010C0F23D000E9017E044F20040E0
:1040A000C5F602000068800300280BD5FFE70C98D6
:1040B000B0F1005F06D1FFE743F20060C0F26E107E
:1040C0000E9002E000200E90FFE7FFE7FFE702E01E
:1040D00000200E90FFE73FE11898199980F4803096
:1040E0000843D8BBFFE744F24C40C5F60200006825
:1040F00000F480300B900B98039028B1FFE70398F1
:10410000B0F5803F13D025E044F20040C5F6020030
:1041100000688001002806D5FFE715A8FEF7F8FE25
:1041200016980E9002E000200E90FFE715E044F292
:104130000040C5F6020000680001002806D5FFE730
:1041400012A8FFF73DF814980E9002E000200E90A0
:10415000FFE702E000200E90FFE7FCE018981999B5
:1041600080F480400843002840F09580FFE744F247
:104170005840C5F60200006800F0E0400B900B9834
:104180000290C8B1FFE70298B0F1805F18D0FFE756
:104190000298B0F1005F26D0FFE70298B0F1405FCF
:1041A00034D0FFE70298B0F1804F4AD0FFE7029881
:1041B000B0F1A04F58D06AE0FEF796FE0E9069E08D
:1041C00044F20040C5F6020000680001002806D550
:1041D000FFE712A8FEF7F4FF13980E9002E000200C
:1041E0000E90FFE756E044F20040C5F6020000687A
:1041F0008000002806D5FFE70FA8FFF739F91098CF
:104200000E9002E000200E90FFE743E044F20040F1
:10421000C5F602000068400700280ED5FFE744F20B
:104220000040C5F602000068C0F3C10149F2000079
:10423000C0F2D030C8400E9002E000200E90FFE7A0
:1042400028E044F20040C5F602000068C0050028DE
:1042500006D5FFE740F60010C0F23D000E9002E0E8
:1042600000200E90FFE715E044F20040C5F6020082
:1042700000688003002806D5FFE743F20060C0F223
:104280006E100E9002E000200E90FFE702E000208A
:104290000E90FFE75EE01898199980F400400843FB
:1042A000002853D1FFE744F25040C5F602000068F1
:1042B00000F040500B900B98019050B1FFE701982F
:1042C000B0F1805F18D0FFE70198B0F1005F26D011
:1042D00038E044F20040C5F6020000688003002880
:1042E00006D5FFE743F20060C0F26E100E9002E0C8
:1042F00000200E90FFE728E044F20040C5F60200DF
:1043000000688001002806D5FFE715A8FEF700FE2B
:1043100016980E9002E000200E90FFE715E044F2A0
:104320000040C5F6020000680001002806D5FFE73E
:1043300012A8FEF745FF13980E9002E000200E90A1
:10434000FFE702E000200E90FFE702E000200E9061
:10435000FFE7FFE7FFE7FFE7FFE7FFE7FFE7FFE72D
:10436000FFE7FFE70E981AB080BD000000000000D4
:1043700080B59AB0189000208DF857008DF856003F
:104380001898C0780007002848D5FFE71898806E75
:10439000149078B1FFE71498B0F5801F13D0FFE7B1
:1043A0001498B0F5001F16D0FFE71498B0F5401F21
:1043B00019D019E044F22C41C5F60201086840F416
:1043C0000030086014E018980830022105F0E0F988
:1043D0008DF857000CE018982830022105F0C0FA3B
:1043E0008DF8570004E003E001208DF85700FFE747
:1043F0009DF8570060B9FFE744F25041C5F602014D
:10440000086820F44010189A926E1043086004E087
:104410009DF857008DF85600FFE7FFE718984078A1
:10442000C007002840D0FFE71898806D139004283B
:1044300020D81399DFE801F0030C141C1D0044F28E
:104440002C41C5F60201086840F40030086015E010
:1044500018980830002105F09BF98DF857000DE001
:1044600018982830002105F07BFA8DF8570005E0F8
:1044700004E003E001208DF85700FFE79DF85700A6
:1044800060B9FFE744F25041C5F60201086820F028
:104490000700189A926D1043086004E09DF85700D9
:1044A0008DF85600FFE7FFE718984078800700284E
:1044B0004BD5FFE71898C06D129088B1FFE71298AE
:1044C000402816D0FFE7129880281AD0FFE71298EC
:1044D000C0281ED0FFE71298B0F5807F1AD01AE0EE
:1044E00044F22C41C5F60201086840F4003008602F
:1044F00015E018980830002105F04AF98DF85700AA
:104500000DE018982830002105F02AFA8DF85700A0
:1045100005E004E003E001208DF85700FFE79DF877
:10452000570060B9FFE744F25041C5F60201086840
:1045300020F4E070189AD26D1043086004E09DF8F2
:1045400057008DF85600FFE7FFE7189840784007BE
:10455000002850D5FFE71898D0F8A8001190A0B116
:10456000FFE71198B0F5001F18D0FFE71198B0F5DC
:10457000800F1BD0FFE71198B0F5C00F1ED0FFE7EA
:104580001198B0F5000F1AD01AE044F22C41C5F68C
:104590000201086840F40030086015E018980830FF
:1045A000002105F0F5F88DF857000DE01898283037
:1045B000002105F0D5F98DF8570005E004E003E08F
:1045C00001208DF85700FFE79DF8570068B9FFE715
:1045D00044F25841C5F60201086820F46000189AB8
:1045E000D2F8A8201043086004E09DF857008DF829
:1045F0005600FFE7FFE7189840780007002850D5DD
:10460000FFE71898D0F8AC001090A0B1FFE7109821
:10461000B0F1807F18D0FFE71098B0F1007F1BD079
:10462000FFE71098B0F1407F1ED0FFE71098B0F17F
:10463000806F1AD01AE044F22C41C5F602010868D6
:1046400040F40030086015E018980830002105F0AB
:104650009FF88DF857000DE018982830002105F0DC
:104660007FF98DF8570005E004E003E001208DF8A4
:104670005700FFE79DF8570068B9FFE744F258413B
:10468000C5F60201086820F0E060189AD2F8AC2064
:104690001043086004E09DF857008DF85600FFE7CE
:1046A000FFE71898C078800700283ED5FFE71898E4
:1046B000C06C0F90F0B1FFE70F98102808D0FFE70B
:1046C0000F9820280DD0FFE70F98302811D012E066
:1046D00044F22C41C5F60201086840F4003008603D
:1046E0000DE018980830022105F052F88DF85700B7
:1046F00005E004E003E001208DF85700FFE79DF896
:10470000570060B9FFE744F24C41C5F60201086862
:1047100020F03000189AD26C1043086004E09DF835
:1047200057008DF85600FFE7FFE718984078C0065D
:1047300000284ED5FFE71898006E0E90A0B1FFE755
:104740000E98B0F5805F18D0FFE70E98B0F5005FC7
:104750001BD0FFE70E98B0F5405F1ED0FFE70E9824
:10476000B0F5804F1AD01AE044F22C41C5F6020190
:10477000086840F40030086015E0189808300021FF
:1047800005F006F88DF857000DE018982830002144
:1047900005F0E6F88DF8570005E004E003E001209D
:1047A0008DF85700FFE79DF8570060B9FFE744F226
:1047B0005041C5F60201086820F4E040189A126ED4
:1047C0001043086004E09DF857008DF85600FFE79D
:1047D000FFE718984078800600284CD5FFE7189826
:1047E000406E0D90C8B1FFE70D98B0F5803F15D031
:1047F000FFE70D98B0F5003F18D0FFE70D98B0F532
:10480000403F1BD0FFE70D98B0F5802F17D0FFE792
:104810000D98B0F5A02F13D013E016E018980830CB
:10482000012104F0B5FF8DF857000EE018982830EC
:10483000012105F095F88DF8570006E005E004E049
:1048400003E001208DF85700FFE79DF8570060B99D
:10485000FFE744F25041C5F60201086820F4E02069
:10486000189A526E1043086004E09DF857008DF8C6
:104870005600FFE7FFE718984078400600284ED51D
:10488000FFE71898D0F8B0000C90C8B1FFE70C987B
:10489000B0F1805F15D0FFE70C98B0F1005F18D041
:1048A000FFE70C98B0F1405F1BD0FFE70C98B0F128
:1048B000804F17D0FFE70C98B0F1A04F13D013E052
:1048C00016E018980830012104F062FF8DF85700B7
:1048D0000EE018982830012105F042F88DF85700B5
:1048E00006E005E004E003E001208DF85700FFE753
:1048F0009DF8570068B9FFE744F25841C5F6020138
:10490000086820F0E040189AD2F8B0201043086000
:1049100004E09DF857008DF85600FFE7FFE7189870
:104920004078000600283BD5FFE71898006F0B90F1
:10493000D8B1FFE70B98B0F1805F05D0FFE70B9887
:10494000B0F1005F09D011E044F22C41C5F602013C
:10495000086840F4003008600CE018980830012125
:1049600004F016FF8DF8570004E003E001208DF8F5
:104970005700FFE79DF8570060B9FFE744F2504148
:10498000C5F60201086820F04050189A126F1043D3
:10499000086004E09DF857008DF85600FFE7FFE738
:1049A0001898C078C007002837D0FFE71898806CA7
:1049B0000A90032817D80A99DFE801F014020B13B4
:1049C00044F22C41C5F60201086840F4003008604A
:1049D0000DE018980830022104F0DAFE8DF8570037
:1049E00005E004E003E001208DF85700FFE79DF8A3
:1049F000570060B9FFE744F24C41C5F60201086870
:104A000020F00300189A926C1043086004E09DF8AF
:104A100057008DF85600FFE7FFE7189880784006AA
:104A2000002840F1B480FFE744F60001C5F602011A
:104A3000086840F480700860FDF74AFE1690FFE7B2
:104A400044F60000C5F602000068C00500280CD43A
:104A5000FFE7FDF73DFE1699401A652804D3FFE7EE
:104A600003208DF8570000E0EAE79DF85700002882
:104A700040F08780FFE744F27040C5F6020000680E
:104A800000F440701899D1F8B41001F440718842D4
:104A900013D0FFE744F27041C5F60201086820F424
:104AA00040701790086840F480300860086820F46F
:104AB0008030086017980860FFE71898D0F8B400B5
:104AC000B0F5807F1FD1FFE7FDF702FE1690FFE7EC
:104AD00044F27040C5F60200006800F002010020B8
:104AE000B0EB510F0ED1FFE7FDF7F2FD1699401A1A
:104AF00041F28931884204D3FFE703208DF8570043
:104B000000E0E5E7FFE79DF85700A0BBFFE7FFE700
:104B10001898D0F8B40000F44070B0F5407F13D17D
:104B2000FFE744F21041C5F60201086820F47C500A
:104B3000189AD2F8B4204FF6F043C0F6FF731A402B
:104B400040EA1210086008E044F21041C5F6020184
:104B5000086820F47C500860FFE71898D0F8B4206B
:104B60006FF31F3244F27041C5F60201086810432A
:104B70000860FFE704E09DF857008DF85600FFE756
:104B800004E09DF857008DF85600FFE7FFE71898FE
:104B90000068C007002800F04C80FFE71898C06F3D
:104BA000099028282BD80999DFE801F0152929292F
:104BB0002929292916292929292929291E29292983
:104BC000292929292629292929292929272929295A
:104BD00029292929280016E018980830012104F015
:104BE000D7FD8DF857000EE018982830012104F009
:104BF000B7FE8DF8570006E005E004E003E0012071
:104C00008DF85700FFE79DF8570060B9FFE744F2C1
:104C10005441C5F60201086820F03800189AD26F96
:104C20001043086004E09DF857008DF85600FFE738
:104C3000FFE7189800788007002839D5FFE7189813
:104C4000806F0890052819D80899DFE801F003045F
:104C50000C14151616E018980830012104F098FD80
:104C60008DF857000EE018982830012104F078FEE6
:104C70008DF8570006E005E004E003E001208DF820
:104C80005700FFE79DF8570060B9FFE744F2544131
:104C9000C5F60201086820F00700189A926F1043C9
:104CA000086004E09DF857008DF85600FFE7FFE725
:104CB00018980078400700283BD5FFE71898D0F8EF
:104CC00094000790052819D80799DFE801F003043C
:104CD0000C14151616E018980830012104F058FD40
:104CE0008DF857000EE018982830012104F038FEA6
:104CF0008DF8570006E005E004E003E001208DF8A0
:104D00005700FFE79DF8570068B9FFE744F25841A4
:104D1000C5F60201086820F00700189AD2F894201E
:104D20001043086004E09DF857008DF85600FFE737
:104D3000FFE718980078800600284ED5FFE71898FE
:104D4000D0F890000690C8B1FFE70698B0F1805FF8
:104D500015D0FFE70698B0F1005F18D0FFE706987E
:104D6000B0F1405F1BD0FFE70698B0F1804F17D03D
:104D7000FFE70698B0F1A04F13D013E016E01898A3
:104D80000830002104F004FD8DF857000EE018985B
:104D90002830022104F0E4FD8DF8570006E005E01C
:104DA00004E003E001208DF85700FFE79DF857006D
:104DB00068B9FFE744F25441C5F60201086820F0E3
:104DC000E040189AD2F890201043086004E09DF863
:104DD00057008DF85600FFE7FFE718980078400667
:104DE00000284ED5FFE71898D0F89C000590C8B170
:104DF000FFE70598B0F5806F15D0FFE70598B0F58F
:104E0000006F18D0FFE70598B0F5406F1BD0FFE7A3
:104E10000598B0F5805F17D0FFE70598B0F5A05F63
:104E200013D013E016E018980830002104F0B0FC0D
:104E30008DF857000EE018982830022104F090FDFC
:104E40008DF8570006E005E004E003E001208DF84E
:104E50005700FFE79DF8570068B9FFE744F2584153
:104E6000C5F60201086820F4E050189AD2F89C2098
:104E70001043086004E09DF857008DF85600FFE7E6
:104E8000FFE718980078000600284ED5FFE718982D
:104E9000D0F8A0000490C8B1FFE70498B0F5005F17
:104EA00015D0FFE70498B0F5804F18D0FFE70498BD
:104EB000B0F5C04F1BD0FFE70498B0F5004F17D0F6
:104EC000FFE70498B0F5204F13D013E016E01898D0
:104ED0000830002104F05CFC8DF857000EE01898B3
:104EE0002830022104F03CFD8DF8570006E005E073
:104EF00004E003E001208DF85700FFE79DF857001C
:104F000068B9FFE744F25841C5F60201086820F489
:104F10006040189AD2F8A0201043086004E09DF881
:104F200057008DF85600FFE7FFE718980078000754
:104F3000002820D5FFE71898D0F88400B0F5805FEE
:104F40000CD1FFE718982830022104F009FD20B1A8
:104F5000FFE701208DF85600FFE7FFE744F25441D8
:104F6000C5F60201086820F44050189AD2F884204F
:104F700010430860FFE718980078C006002820D585
:104F8000FFE71898D0F89800B0F5807F0CD1FFE7C4
:104F900018982830022104F0E3FC20B1FFE701203B
:104FA0008DF85600FFE7FFE744F25841C5F60201CD
:104FB000086820F44070189AD2F8982010430860CE
:104FC000FFE718988078000700283CD5FFE718987D
:104FD000D0F8A400039050B1FFE70398B0F5803FEC
:104FE0000DD0FFE70398B0F5003F10D010E01898FF
:104FF0000830002104F0CCFB8DF857000CE0189825
:105000002830022104F0ACFC8DF8570004E003E0E6
:1050100001208DF85700FFE79DF8570068B9FFE7BA
:1050200044F25841C5F60201086820F44030189A4D
:10503000D2F8A4201043086004E09DF857008DF8D2
:105040005600FFE7FFE718988078400700283FD513
:10505000FFE71898D0F888000290B0F5801F0AD0BA
:10506000FFE70298B0F5001F0ED0FFE70298B0F5F9
:10507000401F11D011E044F22C41C5F6020108682E
:1050800040F4003008600CE018982830012104F04A
:1050900067FC8DF8570004E003E001208DF857000D
:1050A000FFE79DF8570068B9FFE744F25441C5F6A1
:1050B0000201086820F44010189AD2F888201043A2
:1050C000086004E09DF857008DF85600FFE7FFE701
:1050D00018988078C007A8B3FFE71898006D019072
:1050E00028B1FFE70198B0F5803F09D010E044F205
:1050F0002C41C5F60201086840F4003008600BE05E
:1051000018980830022104F043FB8DF8570003E0A3
:1051100001208DF85700FFE79DF8570060B9FFE7C1
:1051200044F24C41C5F60201086820F48030189A18
:10513000126D1043086004E09DF857008DF856008A
:10514000FFE7FFE71898C078800600280CD5FFE736
:1051500018982830022104F003FC20B1FFE7012059
:105160008DF85600FFE7FFE7189880788007002841
:105170003CD5FFE71898D0F880000090D0B1FFE749
:105180000098B0F5807F0AD0FFE70098B0F5007F67
:105190000ED0FFE70098B0F5407F0AD00BE044F254
:1051A0002C41C5F60201086840F40030086006E0B2
:1051B00005E004E003E001208DF85700FFE79DF8CB
:1051C000570068B9FFE744F25441C5F60201086888
:1051D00020F44070189AD2F880201043086004E050
:1051E0009DF857008DF85600FFE7FFE71898807884
:1051F000C00600280CD5FFE744F25041C5F6020175
:10520000086820F00040189A526F10430860FFE7CA
:105210001898C078C00600280DD5FFE744F2104169
:10522000C5F60201086820F48040189AD2F8B82028
:1052300010430860FFE718988078800600280CD596
:10524000FFE744F25041C5F60201086820F0807083
:10525000189AD26E10430860FFE71898C07840068D
:10526000002811D5FFE7FFE744F21041C5F602011F
:10527000086820F4004008601898D0F8BC2008683E
:1052800010430860FFE7FFE71898C0780006002881
:105290000CD5FFE744F24C41C5F60201086820F046
:1052A0004050189A526D10430860FFE718988078B4
:1052B000000600280DD5FFE744F25441C5F602016F
:1052C000086820F44000189AD2F88C201043086037
:1052D000FFE718980079C00790B1FFE718980830E9
:1052E000002104F055FA8DF857009DF8570008B9D1
:1052F000FFE704E09DF857008DF85600FFE7FFE751
:10530000189800798007002812D5FFE71898083010
:10531000012104F03DFA8DF857009DF8570008B9B7
:10532000FFE704E09DF857008DF85600FFE7FFE720
:10533000189800794007002812D5FFE71898083020
:10534000022104F025FA8DF857009DF8570008B99E
:10535000FFE704E09DF857008DF85600FFE7FFE7F0
:10536000189800790007002812D5FFE71898283010
:10537000002104F0F5FA8DF857009DF8570008B9A0
:10538000FFE704E09DF857008DF85600FFE7FFE7C0
:1053900018980079C006002812D5FFE71898283021
:1053A000012104F0DDFA8DF857009DF8570008B987
:1053B000FFE704E09DF857008DF85600FFE7FFE790
:1053C000189800798006002812D5FFE71898283031
:1053D000022104F0C5FA8DF857009DF8570008B96E
:1053E000FFE704E09DF857008DF85600FFE7FFE760
:1053F0009DF8560020B9FFE700208DF8670003E014
:1054000001208DF86700FFE79DF867001AB080BDA6
:1054100080B586B004900391049820B9FFE701207D
:105420008DF817003CE2039842F20001C5F200211A
:10543000096801F00F01884216D9FFE742F2000027
:10544000C5F20020016821F00F01039A11430160A9
:10545000006800F00F000399884204D0FFE70120A4
:105460008DF817001CE2FFE7049800784007002839
:1054700019D5FFE70498006944F21841C5F6020106
:10548000096801F0700188420CD9FFE744F2184125
:10549000C5F60201086820F07000049A12691043F2
:1054A0000860FFE7FFE7049800780007002819D597
:1054B000FFE70498406944F21C41C5F602010968FF
:1054C00001F0700188420CD9FFE744F21C41C5F697
:1054D0000201086820F07000049A526910430860C5
:1054E000FFE7FFE704980078C006002819D5FFE71A
:1054F0000498806944F21C41C5F60201096801F470
:10550000E06188420CD9FFE744F21C41C5F6020174
:10551000086820F4E060049A926910430860FFE78D
:10552000FFE7049800788006002819D5FFE7049863
:10553000C06944F22041C5F60201096801F070011A
:1055400088420CD9FFE744F22041C5F60201086801
:1055500020F07000049AD26910430860FFE7FFE76B
:10556000049800788007002819D5FFE70498C068E0
:1055700044F21841C5F60201096801F00F018842A2
:105580000CD9FFE744F21841C5F60201086820F083
:105590000F00049AD26810430860FFE7FFE7049801
:1055A0000078C007002800F08C80FFE744F2184123
:1055B000C5F60201086820F47060049A92681043EE
:1055C000086004984068022811D1FFE744F20040C7
:1055D000C5F60200006800F400310020B0EB514F26
:1055E00004D1FFE701208DF8170059E13EE004984F
:1055F0004068032811D1FFE744F20040C5F60200DD
:10560000006800F000710020B0EB516F04D1FFE79B
:1056100001208DF8170043E127E004984068012835
:1056200011D1FFE744F20040C5F60200006800F423
:1056300080710020B0EB112F04D1FFE701208DF81D
:1056400017002DE110E044F20040C5F602000068AA
:1056500000F004010020B0EB910F04D1FFE701201E
:105660008DF817001CE1FFE7FFE7FFE744F2104168
:10567000C5F60201086820F00700049A526810433A
:105680000860FDF725F80190FFE744F21040C5F6E9
:105690000200006800F0380004994968B0EBC10FBF
:1056A0000ED0FFE7FDF714F80199401A41F2893155
:1056B000884204D3FFE703208DF81700F0E0E4E709
:1056C000FFE7049800788007002819D5FFE70498C1
:1056D000C06844F21841C5F60201096801F00F01E3
:1056E00088420CD2FFE744F21841C5F6020108686F
:1056F00020F00F00049AD26810430860FFE7FFE72C
:10570000039842F20001C5F20021096801F00F017F
:10571000884216D2FFE742F20000C5F2002001687D
:1057200021F00F01039A11430160006800F00F009F
:105730000399884204D0FFE701208DF81700AFE0FD
:10574000FFE7049800784007002819D5FFE7049880
:10575000006944F21841C5F60201096801F07001C0
:1057600088420CD2FFE744F21841C5F602010868EE
:1057700020F07000049A126910430860FFE7FFE709
:10578000049800780007002819D5FFE704984069BD
:1057900044F21C41C5F60201096801F0700188421B
:1057A0000CD2FFE744F21C41C5F60201086820F064
:1057B0007000049A526910430860FFE7FFE70498FD
:1057C0000078C006002819D5FFE70498806944F2E4
:1057D0001C41C5F60201096801F4E06188420CD25F
:1057E000FFE744F21C41C5F60201086820F4E060BE
:1057F000049A926910430860FFE7FFE70498007875
:105800008006002819D5FFE70498C06944F22041BA
:10581000C5F60201096801F0700188420CD2FFE769
:1058200044F22041C5F60201086820F07000049A95
:10583000D26910430860FFE7FFE700F089F844F2FF
:105840001842C5F602021168C1F303234BF24071FE
:10585000C0F60001CB5C03F01F03D8400090009815
:10586000126802F00F02895C01F01F01C84040F28B
:105870000401C2F200410860009840F20001C2F247
:105880000041086040F20C00C2F200400068FDF7E1
:10589000F3F98DF80B009DF80B008DF81700FFE76A
:1058A0009DF8170006B080BD80B582B000F050F8BA
:1058B00044F21842C5F602021168C1F303234BF209
:1058C0004071C0F60001CB5C03F01F03D84001908B
:1058D0000198126802F00F02895C01F01F0120FAA2
:1058E00001F140F20400C2F200400160019940F26F
:1058F0000002C2F200421160006802B080BD0000E8
:1059000080B5FFF7D1FF44F21C41C5F602010968DA
:10591000C1F302124BF24071C0F60001895C01F044
:105920001F01C84080BD000080B5FFF7BDFF44F2F5
:105930001C41C5F602010968C1F302224BF2407115
:10594000C0F60001895C01F01F01C84080BD000065
:105950008AB044F21040C5F60200006800F038003A
:1059600001460191182800F269810199DFE811F0E0
:10597000190066016601660166016601660166013D
:105980003A0066016601660166016601660166010C
:1059900040006601660166016601660166016601F6
:1059A000460044F20040C5F60200006800F0200105
:1059B0000020B0EB511F0ED0FFE744F20040C5F6C7
:1059C00002000068C0F3C10149F20000C0F2D0300B
:1059D000C840029005E049F20000C0F2D0300290C9
:1059E000FFE731E140F60010C0F23D0002902BE1EC
:1059F00043F20060C0F26E10029025E144F22840AC
:105A0000C5F60200016801F0030108910068C0F3C7
:105A10000510079044F22C40C5F60200006800F023
:105A200001000690069844F23441C5F60201096867
:105A300089B2C908484300EE100AB8EE400A8DED5D
:105A4000040A0798002800F0F580FFE70898009006
:105A500048B1FFE70098012869D0FFE700980228C5
:105A600000F08980ABE044F20040C5F60200006817
:105A700000F020010020B0EB511F33D0FFE744F2CB
:105A80000040C5F602000068C0F3C10149F2000001
:105A9000C0F2D030C84005909DED050AB8EE400A2E
:105AA0009DED071AB8EE411A80EE010A44F230402B
:105AB000C5F6020000686FF35F2001EE100AB8EE31
:105AC000411A9DED042A9FED633A82EE032A31EEDE
:105AD000021AB7EE002A31EE021A20EE010A8DED0D
